{
  "contractName": "Fundraiser",
  "abi": [
    {
      "constant": true,
      "inputs": [],
      "name": "creator",
      "outputs": [
        {
          "name": "",
          "type": "address"
        }
      ],
      "payable": false,
      "stateMutability": "view",
      "type": "function"
    },
    {
      "constant": true,
      "inputs": [],
      "name": "completeAt",
      "outputs": [
        {
          "name": "",
          "type": "uint256"
        }
      ],
      "payable": false,
      "stateMutability": "view",
      "type": "function"
    },
    {
      "constant": true,
      "inputs": [],
      "name": "fundraiserDeadline",
      "outputs": [
        {
          "name": "",
          "type": "uint256"
        }
      ],
      "payable": false,
      "stateMutability": "view",
      "type": "function"
    },
    {
      "constant": true,
      "inputs": [],
      "name": "fundingGoal",
      "outputs": [
        {
          "name": "",
          "type": "uint256"
        }
      ],
      "payable": false,
      "stateMutability": "view",
      "type": "function"
    },
    {
      "constant": true,
      "inputs": [],
      "name": "state",
      "outputs": [
        {
          "name": "",
          "type": "uint8"
        }
      ],
      "payable": false,
      "stateMutability": "view",
      "type": "function"
    },
    {
      "constant": true,
      "inputs": [],
      "name": "totalRaised",
      "outputs": [
        {
          "name": "",
          "type": "uint256"
        }
      ],
      "payable": false,
      "stateMutability": "view",
      "type": "function"
    },
    {
      "constant": true,
      "inputs": [],
      "name": "currentBalance",
      "outputs": [
        {
          "name": "",
          "type": "uint256"
        }
      ],
      "payable": false,
      "stateMutability": "view",
      "type": "function"
    },
    {
      "payable": false,
      "stateMutability": "nonpayable",
      "type": "fallback"
    },
    {
      "anonymous": false,
      "inputs": [
        {
          "indexed": false,
          "name": "addr",
          "type": "address"
        },
        {
          "indexed": false,
          "name": "amount",
          "type": "uint256"
        },
        {
          "indexed": false,
          "name": "currentTotal",
          "type": "uint256"
        }
      ],
      "name": "LogDonationReceived",
      "type": "event"
    },
    {
      "anonymous": false,
      "inputs": [
        {
          "indexed": false,
          "name": "fundraiserAddress",
          "type": "address"
        }
      ],
      "name": "LogFundraiserPaid",
      "type": "event"
    },
    {
      "anonymous": false,
      "inputs": [
        {
          "indexed": false,
          "name": "creator",
          "type": "address"
        },
        {
          "indexed": false,
          "name": "fundraiserRecipient",
          "type": "address"
        },
        {
          "indexed": false,
          "name": "url",
          "type": "string"
        },
        {
          "indexed": false,
          "name": "_fundingGoal",
          "type": "uint256"
        },
        {
          "indexed": false,
          "name": "fundraiserDeadline",
          "type": "uint256"
        }
      ],
      "name": "LogFundraiserInitialized",
      "type": "event"
    },
    {
      "constant": false,
      "inputs": [
        {
          "name": "timeForFundraising",
          "type": "uint256"
        },
        {
          "name": "_fundraiserUrl",
          "type": "string"
        },
        {
          "name": "_fundraiserRecipient",
          "type": "address"
        },
        {
          "name": "_fundingGoal",
          "type": "uint256"
        }
      ],
      "name": "initFundraiser",
      "outputs": [],
      "payable": false,
      "stateMutability": "nonpayable",
      "type": "function"
    },
    {
      "constant": false,
      "inputs": [
        {
          "name": "x",
          "type": "uint256"
        }
      ],
      "name": "set",
      "outputs": [],
      "payable": false,
      "stateMutability": "nonpayable",
      "type": "function"
    },
    {
      "constant": true,
      "inputs": [],
      "name": "get",
      "outputs": [
        {
          "name": "",
          "type": "uint256"
        }
      ],
      "payable": false,
      "stateMutability": "view",
      "type": "function"
    },
    {
      "constant": false,
      "inputs": [],
      "name": "Donate",
      "outputs": [
        {
          "name": "",
          "type": "uint256"
        }
      ],
      "payable": true,
      "stateMutability": "payable",
      "type": "function"
    },
    {
      "constant": false,
      "inputs": [],
      "name": "payOut",
      "outputs": [],
      "payable": false,
      "stateMutability": "nonpayable",
      "type": "function"
    },
    {
      "constant": false,
      "inputs": [
        {
          "name": "id",
          "type": "uint256"
        }
      ],
      "name": "getRefund",
      "outputs": [
        {
          "name": "",
          "type": "bool"
        }
      ],
      "payable": false,
      "stateMutability": "nonpayable",
      "type": "function"
    },
    {
      "constant": false,
      "inputs": [],
      "name": "removeContract",
      "outputs": [],
      "payable": false,
      "stateMutability": "nonpayable",
      "type": "function"
    }
  ],
  "bytecode": "0x60806040526000600660006101000a81548160ff0219169083600381111561002357fe5b021790555034801561003457600080fd5b50610d34806100446000396000f3006080604052600436106100d0576000357c0100000000000000000000000000000000000000000000000000000000900463ffffffff16806302d05d3f146100e25780634c4cea5a1461013957806355ecf5ab14610164578063604a9b011461020157806360fe47b11461022c5780636d4ce63c146102595780637a3a0e8414610284578063c19d93fb146102af578063c2052403146102e8578063c5c4744c146102ff578063ce845d1d1461032a578063d2f0be9914610355578063d917deb51461039a578063fe389e09146103b8575b3480156100dc57600080fd5b50600080fd5b3480156100ee57600080fd5b506100f76103cf565b604051808273ffffffffffffffffffffffffffffffffffffffff1673ffffffffffffffffffffffffffffffffffffffff16815260200191505060405180910390f35b34801561014557600080fd5b5061014e6103f5565b6040518082815260200191505060405180910390f35b34801561017057600080fd5b506101ff60048036038101908080359060200190929190803590602001908201803590602001908080601f0160208091040260200160405190810160405280939291908181526020018383808284378201915050505050509192919290803573ffffffffffffffffffffffffffffffffffffffff169060200190929190803590602001909291905050506103fb565b005b34801561020d57600080fd5b50610216610634565b6040518082815260200191505060405180910390f35b34801561023857600080fd5b506102576004803603810190808035906020019092919050505061063a565b005b34801561026557600080fd5b5061026e610644565b6040518082815260200191505060405180910390f35b34801561029057600080fd5b5061029961064e565b6040518082815260200191505060405180910390f35b3480156102bb57600080fd5b506102c4610654565b604051808260038111156102d457fe5b60ff16815260200191505060405180910390f35b3480156102f457600080fd5b506102fd610667565b005b34801561030b57600080fd5b506103146108d4565b6040518082815260200191505060405180910390f35b34801561033657600080fd5b5061033f6108da565b6040518082815260200191505060405180910390f35b34801561036157600080fd5b50610380600480360381019080803590602001909291905050506108e0565b604051808215151515815260200191505060405180910390f35b6103a2610a6f565b6040518082815260200191505060405180910390f35b3480156103c457600080fd5b506103cd610bee565b005b600160009054906101000a900473ffffffffffffffffffffffffffffffffffffffff1681565b600a5481565b33600160006101000a81548173ffffffffffffffffffffffffffffffffffffffff021916908373ffffffffffffffffffffffffffffffffffffffff16021790555081600260006101000a81548173ffffffffffffffffffffffffffffffffffffffff021916908373ffffffffffffffffffffffffffffffffffffffff1602179055508260049080519060200190610493929190610c63565b50670de0b6b3a76400008102600381905550610e1084024201935060006008819055507f6df67a7b6c644085a690954cdccdda2e67f042ba4edf8cb2ff8d01e7e9e321cd600160009054906101000a900473ffffffffffffffffffffffffffffffffffffffff16600260009054906101000a900473ffffffffffffffffffffffffffffffffffffffff16600460035488604051808673ffffffffffffffffffffffffffffffffffffffff1673ffffffffffffffffffffffffffffffffffffffff1681526020018573ffffffffffffffffffffffffffffffffffffffff1673ffffffffffffffffffffffffffffffffffffffff1681526020018060200184815260200183815260200182810382528581815460018160011615610100020316600290048152602001915080546001816001161561010002031660029004801561061c5780601f106105f15761010080835404028352916020019161061c565b820191906000526020600020905b8154815290600101906020018083116105ff57829003601f168201915b5050965050505050505060405180910390a150505050565b60095481565b8060058190555050565b6000600554905090565b60035481565b600660009054906101000a900460ff1681565b600180600381111561067557fe5b600660009054906101000a900460ff16600381111561069057fe5b14151561069c57600080fd5b600160009054906101000a900473ffffffffffffffffffffffffffffffffffffffff1673ffffffffffffffffffffffffffffffffffffffff166108fc600080600160009054906101000a900473ffffffffffffffffffffffffffffffffffffffff1673ffffffffffffffffffffffffffffffffffffffff1673ffffffffffffffffffffffffffffffffffffffff168152602001908152602001600020549081150290604051600060405180830381858888f19350505050151561075e57600080fd5b600260009054906101000a900473ffffffffffffffffffffffffffffffffffffffff1673ffffffffffffffffffffffffffffffffffffffff166108fc600080600160009054906101000a900473ffffffffffffffffffffffffffffffffffffffff1673ffffffffffffffffffffffffffffffffffffffff1673ffffffffffffffffffffffffffffffffffffffff168152602001908152602001600020549081150290604051600060405180830381858888f19350505050151561082057600080fd5b6003600660006101000a81548160ff0219169083600381111561083f57fe5b021790555060006008819055507f8b2bfed65abee3b00e316dac3b3c9796d4193a2bc0f315b4eb670932d8675375600160009054906101000a900473ffffffffffffffffffffffffffffffffffffffff16604051808273ffffffffffffffffffffffffffffffffffffffff1673ffffffffffffffffffffffffffffffffffffffff16815260200191505060405180910390a150565b60075481565b60085481565b60008060028060038111156108f157fe5b600660009054906101000a900460ff16600381111561090c57fe5b14151561091857600080fd5b83600b8054905011158061092c5750600084105b8061095757506000600b8581548110151561094357fe5b906000526020600020906002020160000154145b1561096157600080fd5b600b8481548110151561097057fe5b90600052602060002090600202016000015491506000600b8581548110151561099557fe5b906000526020600020906002020160000181905550600b848154811015156109b957fe5b906000526020600020906002020160010160009054906101000a900473ffffffffffffffffffffffffffffffffffffffff1673ffffffffffffffffffffffffffffffffffffffff166108fc839081150290604051600060405180830381858888f193505050501515610a535781600b85815481101515610a3557fe5b90600052602060002090600202016000018190555060009250610a68565b81600781905550600754600881905550600192505b5050919050565b600080806003811115610a7e57fe5b600660009054906101000a900460ff166003811115610a9957fe5b141515610aa557600080fd5b600b60408051908101604052803481526020013373ffffffffffffffffffffffffffffffffffffffff16815250908060018154018082558091505090600182039060005260206000209060020201600090919290919091506000820151816000015560208201518160010160006101000a81548173ffffffffffffffffffffffffffffffffffffffff021916908373ffffffffffffffffffffffffffffffffffffffff160217905550505050346007600082825401925050819055506007546008819055507f8fa09d0d0409c35ef3a40d2e1f9f00512eedb373c85bd5b86177ba58c3a5a48e3334600754604051808473ffffffffffffffffffffffffffffffffffffffff1673ffffffffffffffffffffffffffffffffffffffff168152602001838152602001828152602001935050505060405180910390a16001600b805490500391505090565b600160009054906101000a900473ffffffffffffffffffffffffffffffffffffffff1673ffffffffffffffffffffffffffffffffffffffff163373ffffffffffffffffffffffffffffffffffffffff16141515610c4a57600080fd5b3373ffffffffffffffffffffffffffffffffffffffff16ff5b828054600181600116156101000203166002900490600052602060002090601f016020900481019282601f10610ca457805160ff1916838001178555610cd2565b82800160010185558215610cd2579182015b82811115610cd1578251825591602001919060010190610cb6565b5b509050610cdf9190610ce3565b5090565b610d0591905b80821115610d01576000816000905550600101610ce9565b5090565b905600a165627a7a72305820fb9205afd062cfce441b6d6e8b923464b13ae446eda35bb685abd636331426cd0029",
  "source": "pragma solidity ^0.4.18;\n\ncontract Fundraiser {\n\tmapping(address => uint) private balances;\n\taddress public creator;\n\taddress fundraiserRecipient;\n\tuint public fundingGoal;\n\tstring fundraiserUrl;\n\t//version #\n\tuint constant version = 1;\n\tuint storedData;\n\t//Data structures for fundraising\n\tenum fundraiserState {\n\t\tInProgress, \n\t\tCompletedSuccess,\n\t\tCompletedFailure,\n\t\tClosed\n\t}\n\n\t// donation details; will be used for tallying donations, as well as contribution point processing\n\tstruct Donation {\n\t\tuint amount;\n\t\taddress donator;\n\t}\n\n\t//State variables\n\t//initialize first state for fundraiser on create\n\tfundraiserState public state = fundraiserState.InProgress;\n\tuint public totalRaised;\n\tuint public currentBalance;\n\tuint public fundraiserDeadline;\n\tuint public completeAt;\n\n\tDonation[] donations;\n\n\t//events\n\tevent LogDonationReceived(address addr, uint amount, uint currentTotal);\n\tevent LogFundraiserPaid(address fundraiserAddress);\n\tevent LogFundraiserInitialized(\n\t\taddress creator,\n\t\taddress fundraiserRecipient,\n\t\tstring url,\n\t\tuint _fundingGoal,\n\t\tuint256 fundraiserDeadline\n\t);\n\n\t// modifier to ensure that fundraiser is in one of the possible states; revert if not\n\tmodifier inState(fundraiserState _state) {\n\t\tif (state != _state) revert();\n\t\t_;\n\t}\n\n\t//modifier to ensure that the creator is the msg.sender\n\tmodifier isCreator() {\n\t\tif(msg.sender != creator) revert();\n\t\t_;\n\t}\n\n\t// constructor() public {\n\t\t\n\t// }\n\n\t//function to initialize fundraiser\n\tfunction initFundraiser (uint timeForFundraising, string _fundraiserUrl, address _fundraiserRecipient, uint _fundingGoal) public {\n\t\tcreator = msg.sender;\n\t\tfundraiserRecipient =  _fundraiserRecipient;\n\t\tfundraiserUrl = _fundraiserUrl;\n\t\t//convert to wei\n\t\tfundingGoal = _fundingGoal * 1000000000000000000;\t\n\t\ttimeForFundraising = now + (timeForFundraising * 1 hours);\n\t\tcurrentBalance = 0;\n\t\temit LogFundraiserInitialized(creator, fundraiserRecipient, fundraiserUrl, fundingGoal, timeForFundraising);\n\t}\n\n\tfunction set(uint x) public {\n    \tstoredData = x;\n  \t}\n\n  \tfunction get() public view returns (uint) {\n    \treturn storedData;\n  \t}\n\tfunction Donate()\n\tpublic\n\tinState(fundraiserState.InProgress) payable returns (uint256)\n\t{\n\t\tdonations.push(Donation({\n\t\t\tamount: msg.value,\n\t\t\tdonator: msg.sender \t\n\t\t}));\n\t\ttotalRaised += msg.value;\n\t\tcurrentBalance = totalRaised;\n\t\temit LogDonationReceived(msg.sender, msg.value, totalRaised);\n\t\t//need something here to check whether fundraiser has reached its goal or expired\n\t\t//need donation id, which is the index in the array\n\t\treturn donations.length - 1;\n\t}\n\n\tfunction payOut()\n\tpublic\n\tinState(fundraiserState.CompletedSuccess)\n\t{\n\t\tif(!creator.send(balances[creator])) {\n\t\t\trevert();\n\t\t}\n\t\tif(!fundraiserRecipient.send(balances[creator])) {\n\t\t\trevert();\n\t\t}\n\t\tstate = fundraiserState.Closed;\n\t\tcurrentBalance = 0;\n\t\temit LogFundraiserPaid(creator);\n\t}\n\n\tfunction getRefund(uint256 id)\n\tpublic\n\tinState(fundraiserState.CompletedFailure)\n\treturns (bool)\n\t{\n\t\tif(donations.length <= id || id < 0 || donations[id].amount == 0) {\n\t\t\trevert();\n\t\t}\n\t\tuint amountToRefund = donations[id].amount;\n\t\tdonations[id].amount = 0;\n\n\t\tif(!donations[id].donator.send(amountToRefund))\n\t\t{\n\t\t\tdonations[id].amount = amountToRefund;\n\t\t\treturn false;\n\t\t}\n\t\telse{\n\t\t\ttotalRaised = amountToRefund;\n\t\t\tcurrentBalance = totalRaised;\n\t\t}\n\t\treturn true;\n\t}\n\n\tfunction removeContract()\n\tpublic\n\tisCreator()\n\t// end of fundraiser handling once that function is written\n\t{\n\t\tselfdestruct(msg.sender);\n\t\t// creator will get any money left in the contract\n\t}\n\n\t//default function\n\tfunction() public {\n\t\trevert();\n\t}\n\n}\n",
  "sourcePath": "/home/faina/KarmaProject/contracts/Fundraiser.sol",
  "compiler": {
    "name": "solc",
    "version": "0.4.24+commit.e67f0147.Emscripten.clang"
  },
  "schemaVersion": "2.0.1",
  "updatedAt": "2018-08-08T20:30:10.164Z"
}