{
  "contractName": "Fundraiser",
  "abi": [
    {
      "constant": true,
      "inputs": [],
      "name": "creator",
      "outputs": [
        {
          "name": "",
          "type": "address"
        }
      ],
      "payable": false,
      "stateMutability": "view",
      "type": "function"
    },
    {
      "constant": true,
      "inputs": [],
      "name": "completeAt",
      "outputs": [
        {
          "name": "",
          "type": "uint256"
        }
      ],
      "payable": false,
      "stateMutability": "view",
      "type": "function"
    },
    {
      "constant": true,
      "inputs": [],
      "name": "fundraiserDeadline",
      "outputs": [
        {
          "name": "",
          "type": "uint256"
        }
      ],
      "payable": false,
      "stateMutability": "view",
      "type": "function"
    },
    {
      "constant": true,
      "inputs": [],
      "name": "fundingGoal",
      "outputs": [
        {
          "name": "",
          "type": "uint256"
        }
      ],
      "payable": false,
      "stateMutability": "view",
      "type": "function"
    },
    {
      "constant": true,
      "inputs": [],
      "name": "state",
      "outputs": [
        {
          "name": "",
          "type": "uint8"
        }
      ],
      "payable": false,
      "stateMutability": "view",
      "type": "function"
    },
    {
      "constant": true,
      "inputs": [],
      "name": "totalRaised",
      "outputs": [
        {
          "name": "",
          "type": "uint256"
        }
      ],
      "payable": false,
      "stateMutability": "view",
      "type": "function"
    },
    {
      "constant": true,
      "inputs": [],
      "name": "currentBalance",
      "outputs": [
        {
          "name": "",
          "type": "uint256"
        }
      ],
      "payable": false,
      "stateMutability": "view",
      "type": "function"
    },
    {
      "inputs": [
        {
          "name": "timeForFundraising",
          "type": "uint256"
        },
        {
          "name": "_fundraiserUrl",
          "type": "string"
        },
        {
          "name": "_fundraiserRecipient",
          "type": "address"
        },
        {
          "name": "_fundingGoal",
          "type": "uint256"
        }
      ],
      "payable": false,
      "stateMutability": "nonpayable",
      "type": "constructor"
    },
    {
      "payable": false,
      "stateMutability": "nonpayable",
      "type": "fallback"
    },
    {
      "anonymous": false,
      "inputs": [
        {
          "indexed": false,
          "name": "addr",
          "type": "address"
        },
        {
          "indexed": false,
          "name": "amount",
          "type": "uint256"
        },
        {
          "indexed": false,
          "name": "currentTotal",
          "type": "uint256"
        }
      ],
      "name": "LogDonationReceived",
      "type": "event"
    },
    {
      "anonymous": false,
      "inputs": [
        {
          "indexed": false,
          "name": "fundraiserAddress",
          "type": "address"
        }
      ],
      "name": "LogFundraiserPaid",
      "type": "event"
    },
    {
      "anonymous": false,
      "inputs": [
        {
          "indexed": false,
          "name": "creator",
          "type": "address"
        },
        {
          "indexed": false,
          "name": "fundraiserRecipient",
          "type": "address"
        },
        {
          "indexed": false,
          "name": "url",
          "type": "string"
        },
        {
          "indexed": false,
          "name": "_fundingGoal",
          "type": "uint256"
        },
        {
          "indexed": false,
          "name": "fundraiserDeadline",
          "type": "uint256"
        }
      ],
      "name": "LogFundraiserInitialized",
      "type": "event"
    },
    {
      "constant": false,
      "inputs": [],
      "name": "Donate",
      "outputs": [
        {
          "name": "",
          "type": "uint256"
        }
      ],
      "payable": true,
      "stateMutability": "payable",
      "type": "function"
    },
    {
      "constant": false,
      "inputs": [],
      "name": "payOut",
      "outputs": [],
      "payable": false,
      "stateMutability": "nonpayable",
      "type": "function"
    },
    {
      "constant": false,
      "inputs": [
        {
          "name": "id",
          "type": "uint256"
        }
      ],
      "name": "getRefund",
      "outputs": [
        {
          "name": "",
          "type": "bool"
        }
      ],
      "payable": false,
      "stateMutability": "nonpayable",
      "type": "function"
    },
    {
      "constant": false,
      "inputs": [],
      "name": "removeContract",
      "outputs": [],
      "payable": false,
      "stateMutability": "nonpayable",
      "type": "function"
    }
  ],
  "bytecode": "0x60806040526000600560006101000a81548160ff0219169083600381111561002357fe5b021790555034801561003457600080fd5b50604051610c94380380610c948339810180604052810190808051906020019092919080518201929190602001805190602001909291908051906020019092919050505033600160006101000a81548173ffffffffffffffffffffffffffffffffffffffff021916908373ffffffffffffffffffffffffffffffffffffffff16021790555081600260006101000a81548173ffffffffffffffffffffffffffffffffffffffff021916908373ffffffffffffffffffffffffffffffffffffffff16021790555082600490805190602001906101109291906102b4565b50670de0b6b3a76400008102600381905550610e1084024201935060006007819055507f6df67a7b6c644085a690954cdccdda2e67f042ba4edf8cb2ff8d01e7e9e321cd600160009054906101000a900473ffffffffffffffffffffffffffffffffffffffff16600260009054906101000a900473ffffffffffffffffffffffffffffffffffffffff16600460035488604051808673ffffffffffffffffffffffffffffffffffffffff1673ffffffffffffffffffffffffffffffffffffffff1681526020018573ffffffffffffffffffffffffffffffffffffffff1673ffffffffffffffffffffffffffffffffffffffff168152602001806020018481526020018381526020018281038252858181546001816001161561010002031660029004815260200191508054600181600116156101000203166002900480156102995780601f1061026e57610100808354040283529160200191610299565b820191906000526020600020905b81548152906001019060200180831161027c57829003601f168201915b5050965050505050505060405180910390a150505050610359565b828054600181600116156101000203166002900490600052602060002090601f016020900481019282601f106102f557805160ff1916838001178555610323565b82800160010185558215610323579182015b82811115610322578251825591602001919060010190610307565b5b5090506103309190610334565b5090565b61035691905b8082111561035257600081600090555060010161033a565b5090565b90565b61092c806103686000396000f3006080604052600436106100af576000357c0100000000000000000000000000000000000000000000000000000000900463ffffffff16806302d05d3f146100c15780634c4cea5a14610118578063604a9b01146101435780637a3a0e841461016e578063c19d93fb14610199578063c2052403146101d2578063c5c4744c146101e9578063ce845d1d14610214578063d2f0be991461023f578063d917deb514610284578063fe389e09146102a2575b3480156100bb57600080fd5b50600080fd5b3480156100cd57600080fd5b506100d66102b9565b604051808273ffffffffffffffffffffffffffffffffffffffff1673ffffffffffffffffffffffffffffffffffffffff16815260200191505060405180910390f35b34801561012457600080fd5b5061012d6102df565b6040518082815260200191505060405180910390f35b34801561014f57600080fd5b506101586102e5565b6040518082815260200191505060405180910390f35b34801561017a57600080fd5b506101836102eb565b6040518082815260200191505060405180910390f35b3480156101a557600080fd5b506101ae6102f1565b604051808260038111156101be57fe5b60ff16815260200191505060405180910390f35b3480156101de57600080fd5b506101e7610304565b005b3480156101f557600080fd5b506101fe610571565b6040518082815260200191505060405180910390f35b34801561022057600080fd5b50610229610577565b6040518082815260200191505060405180910390f35b34801561024b57600080fd5b5061026a6004803603810190808035906020019092919050505061057d565b604051808215151515815260200191505060405180910390f35b61028c61070c565b6040518082815260200191505060405180910390f35b3480156102ae57600080fd5b506102b761088b565b005b600160009054906101000a900473ffffffffffffffffffffffffffffffffffffffff1681565b60095481565b60085481565b60035481565b600560009054906101000a900460ff1681565b600180600381111561031257fe5b600560009054906101000a900460ff16600381111561032d57fe5b14151561033957600080fd5b600160009054906101000a900473ffffffffffffffffffffffffffffffffffffffff1673ffffffffffffffffffffffffffffffffffffffff166108fc600080600160009054906101000a900473ffffffffffffffffffffffffffffffffffffffff1673ffffffffffffffffffffffffffffffffffffffff1673ffffffffffffffffffffffffffffffffffffffff168152602001908152602001600020549081150290604051600060405180830381858888f1935050505015156103fb57600080fd5b600260009054906101000a900473ffffffffffffffffffffffffffffffffffffffff1673ffffffffffffffffffffffffffffffffffffffff166108fc600080600160009054906101000a900473ffffffffffffffffffffffffffffffffffffffff1673ffffffffffffffffffffffffffffffffffffffff1673ffffffffffffffffffffffffffffffffffffffff168152602001908152602001600020549081150290604051600060405180830381858888f1935050505015156104bd57600080fd5b6003600560006101000a81548160ff021916908360038111156104dc57fe5b021790555060006007819055507f8b2bfed65abee3b00e316dac3b3c9796d4193a2bc0f315b4eb670932d8675375600160009054906101000a900473ffffffffffffffffffffffffffffffffffffffff16604051808273ffffffffffffffffffffffffffffffffffffffff1673ffffffffffffffffffffffffffffffffffffffff16815260200191505060405180910390a150565b60065481565b60075481565b600080600280600381111561058e57fe5b600560009054906101000a900460ff1660038111156105a957fe5b1415156105b557600080fd5b83600a805490501115806105c95750600084105b806105f457506000600a858154811015156105e057fe5b906000526020600020906002020160000154145b156105fe57600080fd5b600a8481548110151561060d57fe5b90600052602060002090600202016000015491506000600a8581548110151561063257fe5b906000526020600020906002020160000181905550600a8481548110151561065657fe5b906000526020600020906002020160010160009054906101000a900473ffffffffffffffffffffffffffffffffffffffff1673ffffffffffffffffffffffffffffffffffffffff166108fc839081150290604051600060405180830381858888f1935050505015156106f05781600a858154811015156106d257fe5b90600052602060002090600202016000018190555060009250610705565b81600681905550600654600781905550600192505b5050919050565b60008080600381111561071b57fe5b600560009054906101000a900460ff16600381111561073657fe5b14151561074257600080fd5b600a60408051908101604052803481526020013373ffffffffffffffffffffffffffffffffffffffff16815250908060018154018082558091505090600182039060005260206000209060020201600090919290919091506000820151816000015560208201518160010160006101000a81548173ffffffffffffffffffffffffffffffffffffffff021916908373ffffffffffffffffffffffffffffffffffffffff160217905550505050346006600082825401925050819055506006546007819055507f8fa09d0d0409c35ef3a40d2e1f9f00512eedb373c85bd5b86177ba58c3a5a48e3334600654604051808473ffffffffffffffffffffffffffffffffffffffff1673ffffffffffffffffffffffffffffffffffffffff168152602001838152602001828152602001935050505060405180910390a16001600a805490500391505090565b600160009054906101000a900473ffffffffffffffffffffffffffffffffffffffff1673ffffffffffffffffffffffffffffffffffffffff163373ffffffffffffffffffffffffffffffffffffffff161415156108e757600080fd5b3373ffffffffffffffffffffffffffffffffffffffff16ff00a165627a7a72305820caf9b68ddfed790867ad90e773a2a06d42afb3b370ee01b9b8da92f48b4379400029",
  "source": "pragma solidity ^0.4.18;\n\ncontract Fundraiser {\n\tmapping(address => uint) private balances;\n\taddress public creator;\n\taddress fundraiserRecipient;\n\tuint public fundingGoal;\n\tstring fundraiserUrl;\n\t//version #\n\tuint constant version = 1;\n\n\t//Data structures for fundraising\n\tenum fundraiserState {\n\t\tInProgress, \n\t\tCompletedSuccess,\n\t\tCompletedFailure,\n\t\tClosed\n\t}\n\n\t// donation details; will be used for tallying donations, as well as contribution point processing\n\tstruct Donation {\n\t\tuint amount;\n\t\taddress donator;\n\t}\n\n\t//State variables\n\t//initialize first state for fundraiser on create\n\tfundraiserState public state = fundraiserState.InProgress;\n\tuint public totalRaised;\n\tuint public currentBalance;\n\tuint public fundraiserDeadline;\n\tuint public completeAt;\n\n\tDonation[] donations;\n\n\t//events\n\tevent LogDonationReceived(address addr, uint amount, uint currentTotal);\n\tevent LogFundraiserPaid(address fundraiserAddress);\n\tevent LogFundraiserInitialized(\n\t\taddress creator,\n\t\taddress fundraiserRecipient,\n\t\tstring url,\n\t\tuint _fundingGoal,\n\t\tuint256 fundraiserDeadline\n\t);\n\n\t// modifier to ensure that fundraiser is in one of the possible states; revert if not\n\tmodifier inState(fundraiserState _state) {\n\t\tif (state != _state) revert();\n\t\t_;\n\t}\n\n\t//modifier to ensure that the creator is the msg.sender\n\tmodifier isCreator() {\n\t\tif(msg.sender != creator) revert();\n\t\t_;\n\t}\n\n\t//function to initialize fundraiser; also the constructor\n\n\tconstructor (uint timeForFundraising, string _fundraiserUrl, address _fundraiserRecipient, uint _fundingGoal) public {\n\t\tcreator = msg.sender;\n\t\tfundraiserRecipient =  _fundraiserRecipient;\n\t\tfundraiserUrl = _fundraiserUrl;\n\t\t//convert to wei\n\t\tfundingGoal = _fundingGoal * 1000000000000000000;\t\n\t\ttimeForFundraising = now + (timeForFundraising * 1 hours);\n\t\tcurrentBalance = 0;\n\t\temit LogFundraiserInitialized(creator, fundraiserRecipient, fundraiserUrl, fundingGoal, timeForFundraising);\n\t}\n\n\tfunction Donate()\n\tpublic\n\tinState(fundraiserState.InProgress) payable returns (uint256)\n\t{\n\t\tdonations.push(Donation({\n\t\t\tamount: msg.value,\n\t\t\tdonator: msg.sender \t\n\t\t}));\n\t\ttotalRaised += msg.value;\n\t\tcurrentBalance = totalRaised;\n\t\temit LogDonationReceived(msg.sender, msg.value, totalRaised);\n\t\t//need something here to check whether fundraiser has reached its goal or expired\n\t\t//need donation id, which is the index in the array\n\t\treturn donations.length - 1;\n\t}\n\n\tfunction payOut()\n\tpublic\n\tinState(fundraiserState.CompletedSuccess)\n\t{\n\t\tif(!creator.send(balances[creator])) {\n\t\t\trevert();\n\t\t}\n\t\tif(!fundraiserRecipient.send(balances[creator])) {\n\t\t\trevert();\n\t\t}\n\t\tstate = fundraiserState.Closed;\n\t\tcurrentBalance = 0;\n\t\temit LogFundraiserPaid(creator);\n\t}\n\n\tfunction getRefund(uint256 id)\n\tpublic\n\tinState(fundraiserState.CompletedFailure)\n\treturns (bool)\n\t{\n\t\tif(donations.length <= id || id < 0 || donations[id].amount == 0) {\n\t\t\trevert();\n\t\t}\n\t\tuint amountToRefund = donations[id].amount;\n\t\tdonations[id].amount = 0;\n\n\t\tif(!donations[id].donator.send(amountToRefund))\n\t\t{\n\t\t\tdonations[id].amount = amountToRefund;\n\t\t\treturn false;\n\t\t}\n\t\telse{\n\t\t\ttotalRaised = amountToRefund;\n\t\t\tcurrentBalance = totalRaised;\n\t\t}\n\t\treturn true;\n\t}\n\n\tfunction removeContract()\n\tpublic\n\tisCreator()\n\t// end of fundraiser handling once that function is written\n\t{\n\t\tselfdestruct(msg.sender);\n\t\t// creator will get any money left in the contract\n\t}\n\n\t//default function\n\tfunction() public {\n\t\trevert();\n\t}\n\n}\n",
  "sourcePath": "/home/faina/KarmaProject/contracts/Fundraiser.sol",
  "compiler": {
    "name": "solc",
    "version": "0.4.24+commit.e67f0147.Emscripten.clang"
  },
  "schemaVersion": "2.0.1",
  "updatedAt": "2018-08-07T17:48:28.374Z"
}